:100000000C942A001895000018950000189500001F
:10001000189500001895000018950000189500002C
:10002000189500001895000018950000189500001C
:10003000189500001895000018950000189500000C
:1000400018950000189500001895000018950000FC
:10005000189500008FE58DBFC0E6E8E74E2E88E0DA
:100060008EBFD7E0F5E05F2EA89584B7082E877F76
:1000700084BF88E1992781BD91BDEEEFF7E0A0E64E
:10008000B0E088278D933197E9F785E089B980E062
:1000900080BD88E18AB96624BB9ABC9AB9980E944F
:1000A000C805C39A8AE090E00E94DF05C398C4980F
:1000B000D29AD09AD19ADA9AD898D9980E94F20412
:1000C0008CE00E9442050E94DB04EEE2FFE00E9409
:1000D000D404E1E0F0E00E94EC040E94DB043FB6AF
:1000E000F89487E0D2018C9381E00E94B80681E009
:1000F000D2018C9381E00E94B8060E9429022496C6
:1001000082E00E94A906C3980E94390282E090E032
:100110000E94DF05C39AB1990C94F60183E911E0BE
:100120000E94E904E6E3FFE00E94D404C3983FB6CE
:10013000F89481E6D2018C9381E00E94B80680E2B7
:10014000D2018C9381E00E94B8060E942902249675
:1001500082E00E94A90683E911E00E94E904AAE96D
:10016000B0E00E94CE04EAE9F0E09CE20DE13AE062
:10017000A5EDB0E00E941907ABEBB0E02C93A5ED24
:10018000B0E0ECE4FFE00E94030711F00C94E20001
:1001900083ED11E00E94E904E0E5FFE00E94D40451
:1001A000A5EDB0E00E94CE04E3EFF0E0AFE6B0E0F2
:1001B0000E94EE060E945606AAE9B0E088278C93BA
:1001C0000C94C201EAE5FFE00E94030711F00C94D1
:1001D000030183ED11E00E94E904E0E5FFE00E94E5
:1001E000D404A5EDB0E00E94CE04E3EFF0E0A6E673
:1001F000B0E00E94EE060E944E06AAE9B0E0882711
:100200008C930C94C201EEE5FFE00E94030711F00D
:100210000C943C0183ED11E00E94E904E0E5FFE06D
:100220000E94D404A5EDB0E00E94CE04E3EFF0E01C
:10023000A4ECB0E00E94EE06A4ECB0E00E94DF0661
:10024000A4E0B2E00D931C933FB6F894A4E0B2E0B2
:100250008D919C91D2018D939C9382E00E94B8066F
:100260000E947703229682E00E94A906AAE9B0E0E4
:1002700088278C930C94C201E2E6FFE00E940307FA
:1002800011F00C94790183ED11E00E94E904E0E59E
:10029000FFE00E94D404A5EDB0E00E94CE04A3EFDD
:1002A000B0E00E942306A2E0B2E00D931C93A1E10E
:1002B000B1E00E942306A1E0B2E00C933FB6F894AF
:1002C000A2E0B2E08D919C91D2018D939C9382E04B
:1002D0000E94B80680910102D2018C9381E00E94B5
:1002E000B8060E94A703249683E00E94A9060C94F6
:1002F000C201E6E6FFE00E94030711F00C94C20180
:1003000083ED11E00E94E904E6E3FFE00E94D404DB
:1003100083ED11E00E94E904E0E5FFE00E94D404CF
:10032000A5EDB0E00E94CE04A3EFB0E00E9423064A
:10033000A2E0B2E00D931C933FB6F894ABEBB0E0B3
:10034000BA93AA93A2E0B2E08D919C91D2018D93D1
:100350009C9382E00E94B8060E94D703249682E014
:100360000E94A90683ED1EE00E94E904EAE6FFE090
:100370000E94D404A0E6B5E0EBEBF0E00E94F905A2
:100380000E94CC043FB6F89487E1D2018C9381E0BF
:100390000E94B80681E0D2018C9381E00E94B806E9
:1003A0000E942902249682E00E94A906AAE9B0E0F0
:1003B0000C9100FB16F00C94970087E28093790073
:1003C00080E480937A003FB6F89482E0D2018C9367
:1003D00081E00E94B8060E941E02229681E00E94DF
:1003E000A906C39A82E090E00E94DF05959A84E610
:1003F00090E00E94DF05959886E990E00E94DF0575
:100400008FE711E00E94E904E0E7FFE00E94D404D6
:100410000E944306A6E6B0E00E94CE048FEB11E0F6
:100420000E94E904E8E7FFE00E94D4040E9443062A
:10043000AFE6B0E00E94CE040C948B003FBEC4989F
:10044000A881B9819C91A9E7B0E00E94BE05C49A39
:1004500008953FBEC49891E0AA81BB810E94BE0569
:10046000A881B9819C91AAE9B0E00E94B305C49A21
:1004700008958AE28093790084E380937A0083E48C
:1004800080937B0080E180937C0080E180937D00FD
:1004900081E080937E003FB6F89486E0D2018C9391
:1004A00081E00E94B8060E941E02229681E00E940E
:1004B000A90681E28093790081E080937A003FB6BB
:1004C000F89482E0D2018C9381E00E94B8060E94E9
:1004D0001E02229681E00E94A90682E280937900A2
:1004E00081E080937A003FB6F89482E0D2018C9349
:1004F00081E00E94B8060E941E02229681E00E94BE
:10050000A90685E28093790088E280937A003FB65D
:10051000F89482E0D2018C9381E00E94B8060E9498
:100520001E02229681E00E94A90681E38093790051
:1005300080E280937A003FB6F89482E0D2018C93F7
:1005400081E00E94B8060E941E02229681E00E946D
:10055000A90686E2809379008FE080937A003FB607
:10056000F89482E0D2018C9381E00E94B8060E9448
:100570001E02229681E00E94A90680E28093790003
:100580008FE080937A003FB6F89482E0D2018C939A
:1005900081E00E94B8060E941E02229681E00E941D
:1005A000A906089580E38093790084E380937A001C
:1005B00083E480937B0080E180937C0080E18093E2
:1005C0007D0081E080937E003FB6F89486E0D20102
:1005D0008C9381E00E94B8060E941E02229681E060
:1005E0000E94A9068AE28093790084E380937A00CE
:1005F00083E480937B0080E180937C0080E18093A2
:100600007D0081E080937E003FB6F89486E0D201C1
:100610008C9381E00E94B8060E941E02229681E01F
:100620000E94A90681E28093790081E080937A009C
:100630003FB6F89482E0D2018C9381E00E94B80624
:100640000E941E02229681E00E94A90682E2809307
:10065000790081E080937A003FB6F89482E0D2017D
:100660008C9381E00E94B8060E941E02229681E0CF
:100670000E94A90685E28093790088E280937A003F
:100680003FB6F89482E0D2018C9381E00E94B806D4
:100690000E941E02229681E00E94A90686E28093B3
:1006A00079008FE080937A003FB6F89482E0D2011F
:1006B0008C9381E00E94B8060E941E02229681E07F
:1006C0000E94A90680E2809379008EE080937A00F0
:1006D0003FB6F89482E0D2018C9381E00E94B80684
:1006E0000E941E02229681E00E94A90608953FBE44
:1006F000D09AD29ADA9AA881B981129690E18E9115
:10070000983018F4392F992702C038E09850881F84
:10071000D89808F4D89A00000000DA98EF93FF9375
:10072000E4E3F0E00E94B005FF91EF91DA9AEF93D5
:10073000FF93E4E3F0E00E94B005FF91EF913A955A
:1007400031F79923E1F6D99A0000D99808953FBE70
:1007500081E00E94B20681E00E94B206AE81BF81B4
:1007600011968C91AA81BB818C93AE81BF818C91B3
:10077000A881B9818C930E94450710EA0E945D0709
:10078000AA81BB811C910E945D07A881B9811C913F
:100790000E945D07AC81BD811C910E945D070E9493
:1007A000540782E0481A80E0580A249608953FBE14
:1007B00081E00E94B20681E00E94B20681E00E94C0
:1007C000B206AE81BF8111968C91AC81BD818C93B4
:1007D000AE81BF818C91AA81BB818C930E94450719
:1007E00010EA0E945D07AC81BD811C910E945D07EB
:1007F000AA81BB811C910E945D070E94450711EAF6
:100800000E945D070E947A07A881B9811C930E940B
:100810005407A881B9818C91A885B9858C9383E010
:10082000481A80E0580A269608950E94450710ED60
:100830000E945D0710E00E945D070E94450711EDD0
:100840000E945D070E947C07A0E6B0E01C930E9416
:100850007C07A1E6B0E01C930E947C07A2E6B0E012
:100860001C930E947C07A8E7B0E01C930E947C07C1
:10087000A3E6B0E01C930E947C07A4E6B0E01C93C2
:100880000E947A07A5E6B0E01C930E94540790915D
:1008900060000E94A905A0E6B0E08C9390916100F1
:1008A0000E94A905A1E6B0E08C93909162000E949D
:1008B000A905A2E6B0E08C93909165000E94A9057D
:1008C000A5E6B0E08C93909164000E94A905A4E68F
:1008D000B0E08C93909163000E94A905A3E6B0E07C
:1008E0008C930895809163000E94A205A3E6B0E076
:1008F0008C93809164000E94A205A4E6B0E08C93E2
:10090000809165000E94A205A5E6B0E08C930E944C
:10091000450710ED0E945D0714E00E945D071091ED
:1009200063000E945D07109164000E945D071091B2
:1009300065000E945D070E94540708958091600041
:100940000E94A205A0E6B0E08C93809161000E9415
:10095000A205A1E6B0E08C93809162000E94A205FE
:10096000A2E6B0E08C930E94450710ED0E945D075F
:1009700010E00E945D07109160000E945D071091D9
:1009800061000E945D07109162000E945D070E9455
:1009900054070895F894FFCFA0E6B5E08D91882321
:1009A00011F068D0FBCF08950E94C606802D11F08B
:1009B00061D0FACF089581E065D080E863C08FE709
:1009C000213039F08FEB223021F083E9233009F018
:1009D00083ED810F0C94420588EE93E0F0D03197BF
:1009E000D9F708958AEF90E00E94DF05BF9ABE9A7A
:1009F000BD9ABC9ABB9ABA9AC29885E090E00E94D0
:100A0000DF05C398C798C698C59AC49AC39AEF934E
:100A1000FF93E1E1F1E00E94B005FF91EF91C398EF
:100A2000CBD0C39AEF93FF93E1E1F1E00E94B005D0
:100A3000FF91EF91C398C0D0C39AEF93FF93E1E188
:100A4000F1E00E94B005FF91EF91C398B5D0C49832
:100A5000C39AEF93FF93E1E1F1E00E94B005FF91AB
:100A6000EF91C398A9D088E20DD08EE00BD086E03C
:100A700009D008950FEF0DD050D0AF9A34D043D0A5
:100A800032D008950FEF05D048D02DD03CD02BD0D8
:100A90000895AE989798AF98A69A8F9AA79A2ED055
:100AA000A298A398A498A598979AAE9AEF93FF93CB
:100AB000E2E0F0E00E94B005FF91EF9193B3AE98B1
:100AC000EF93FF93E2E0F0E00E94B005FF91EF9119
:100AD0000AD00A9511F095FDDCCF9798A29AA39AB7
:100AE000A49AA59A0895AE9AEF93FF93E2E0F0E0FE
:100AF0000E94B005FF91EF91AE980895AA98AB9827
:100B0000AC98AD980895FADF80FDAA9A81FDAB9A62
:100B100082FDAC9A83FDAD9A0895F0DF84FDAA9A18
:100B200085FDAB9A86FDAC9A87FDAD9A0895982F06
:100B300082958F70805D8D939F70905D9D938827C7
:100B40008C9308954AE0082F0E94F3060295802BAB
:100B50000895892F8F70905110F0865FFCCF089513
:100B60003197F1F708950E94CF058C910E94D1052D
:100B70008D939A95D1F70E94D00508950E94CF05D4
:100B80008D910E94D1059A95D9F70E94D0050895BC
:100B9000BF9ABE98C69ABD9A80E58DB9089508950A
:100BA00008958FB9779BFECF8FB10895689462F84E
:100BB0000895E89462F8089581E090E000C0EF9312
:100BC000FF93EE27E82BE92B31F0EDECFAE03197BB
:100BD000F1F70197D1F7FF91EF910895000F111FE1
:100BE0000895009510950F5F1F4F08950191108192
:100BF0000AC00081112707C00191108117FF03C0AF
:100C0000F0DF8DE28D93112477274427552721E1CA
:100C10008894001F111F2A9549F0441F551F4A3020
:100C20005707B0F34A50570B0894F3CF1394842F0F
:100C3000805D8A93802F812B39F789918D931A9447
:100C4000E1F71D92089500271127E8948D918B32CA
:100C500019F08D3211F468948D918A3388F48033C1
:100C600078F080538F93402F512FB8DFB7DF040FF8
:100C7000151FB4DF8F919927080F191F8D91EDCFA4
:100C80000EF4AFDF08950E941504A6E6B0E0E3E697
:100C9000F0E00E94960633970C947206E6E6F0E0C8
:100CA000A3E6B0E00E9484060E947204EFE6F0E042
:100CB000A0E6B0E00E9460060E949E04ADE0BB2763
:100CC000868197810E94D5060D93838194810E942D
:100CD000D5060D93808191810E94D5060D930895CC
:100CE000EDE0FF2782810E94CA068AE38D9381810D
:100CF0000E94CA068AE38D9380810E94CA068827D3
:100D00008C930895ADE0BB27868197810E94D5061C
:100D10000D93838194810E94D5060D9380819181EA
:100D20000E94D5060D930895EDE0FF2782810E9471
:100D3000CA068EE28D9381810E94CA068EE28D934F
:100D400080810E94CA0688278D930895481A590AFF
:100D50000895481A8827580A08955A924A92480EC8
:100D6000591E08955A924A92480E8827581E08958F
:100D70005A924A92480E8827581E80E6481686E006
:100D8000580608F40895689462F80895C895319655
:100D90000020089500278A3018F08A500395FBCF71
:100DA000005D0D93805D8D930895805390530027CF
:100DB000813018F0065F8A95FBCF090F0895002750
:100DC0001127222733278D91882339F08053000F74
:100DD000111F221F331F080FF6CF089581918D93A5
:100DE0008823E1F70895FF93881BF9E0001FFA9527
:100DF00011F4FF910895881F841B18F4840F8894C0
:100E0000F5CF0894F3CF689401C0E894AF93BF93F3
:100E10008D9116F0919103C00E94C606902D8917FE
:100E200018F011F48823A1F7BF91AF910895689449
:100E300001C0E8942227102F231709F4089526F4FF
:100E40000E94C606802D01C08191803081F08917F3
:100E500041F070E08D931A9591F7239571E01D9301
:100E6000EACF01D0E8CF703011F0772708957723CB
:100E700031F42395882713958D931A95E9F70895F2
:100E8000A198A098A998A8980895A09AA19803D08D
:100E9000A09801D0A19AEF93FF93EAE0F0E00E94BE
:100EA000B005FF91EF910895A09AA19AF4DFA09860
:100EB000989BFECFF0DFA198EECF0894111F01C0E0
:100EC000110F69F0A09A18F40000A19802C0A19A2D
:100ED00000C0E1DFA098989BFECFDDDFF1CFA09AA4
:100EE000A198D9DFA098989BFECFE894999968942F
:100EF00062F8D1CF089401C08894331F11E0A09A02
:100F0000A198C9DFA098989BFECFC5DF88949999D6
:100F10000894111FA0F7A09A379510F4A19801C06A
:100F2000A19AB9DFA098989BFECFB5DF08954B65D5
:100F3000737A2E2E2E0020202020202020202020FA
:100F400020202020202020202020000024544D009C
:100F5000506172616E63733A20002444540024523D
:100F60004C00244D5700244D52004D656D3A000051
:100F7000446174756D3A200049646F3A2020200066
:00000001FF
